:100000000C9446000C941F010C941F010C941F01CA
:100010000C941F010C941F010C941F010C941F01E0
:100020000C941F010C941F010C941F010C941F01D0
:100030000C941F010C941F010C941F010C941F01C0
:100040000C941F010C941F010C941F010C941F01B0
:100050000C941F010C941F010C941F010C941F01A0
:100060000C941F010C941F010C941F010C941F0190
:100070000C941F010C941F010C941F010C941F0180
:100080000C941F010C941F010C941F0111241FBE1E
:10009000CFEFD0E1DEBFCDBF0E94AF000C940501D1
:0400A000F894FFCF02
:1000A400414D5344204B464D4120534B464D204B2C
:1000B40041534B00486176652061206E6963652079
:0400C40064617900FA
:1000C8001F93CF93DF93182FC2E6D0E08881816019
:1000D8008883812F807F816088830E94D60020E1F9
:1000E800129FC0011124816088830E94D600DF918D
:0600F800CF911F91089555
:1000FE00CF92DF92EF926901E42E0E94C30007C0F7
:10010E008FEFC81AD80AE80A862F0E946400F601FB
:10011E005E2D0E9418016111F3CFEF90DF90CF900A
:02012E00089532
:100130001F93CF93DF93182FC2E6D0E088818E7F84
:100140008883812F807F88830E94D6001295107F3C
:0E01500018830E94D600DF91CF911F91089571
:10015E008FEF809361000E94F60024EA30E040E0C9
:10016E0060E080E00E947F0028EB30E040E061E03C
:08017E0080E00E947F00FFCF2A
:10018600613031F058F0623029F0633029F007C051
:1001960060EC05C064E903C064ED01C060E8860F49
:0601A6000E94980008957C
:1001AC00CF93DF93C2E6D0E088818260888385E0BC
:1001BC0090E00E94E70088818D7F8883DF91CF914A
:0201CC00089594
:1001CE0020E030E008C0EFE9FFE03197F1F700C022
:0E01DE0000002F5F3F4F28173907ACF308953C
:1001EC008FEF8093620088E20E94980086E00E9464
:0E01FC0098008CE00E9498000E941001089567
:10020A00EC010E9424010E942301CE010E942501D3
:06021A00CE010E9421014B
:1002200081E00E94980085E090E00E94E700089538
:0E02300057FD03C05BBF67910895608108957C
:04023E000C9400001C
:040242000E945000C6
:02024600089519
:02024800089517
:02024A00089515
:00000001FF
